{
  "contractName": "CurationStation",
  "abi": [
    {
      "anonymous": false,
      "inputs": [
        {
          "indexed": true,
          "internalType": "address",
          "name": "previousOwner",
          "type": "address"
        },
        {
          "indexed": true,
          "internalType": "address",
          "name": "newOwner",
          "type": "address"
        }
      ],
      "name": "OwnershipTransferred",
      "type": "event"
    },
    {
      "anonymous": false,
      "inputs": [
        {
          "indexed": false,
          "internalType": "address",
          "name": "account",
          "type": "address"
        }
      ],
      "name": "Paused",
      "type": "event"
    },
    {
      "anonymous": false,
      "inputs": [
        {
          "indexed": true,
          "internalType": "uint256",
          "name": "minimumPatronage",
          "type": "uint256"
        },
        {
          "indexed": true,
          "internalType": "string",
          "name": "Title",
          "type": "string"
        },
        {
          "indexed": true,
          "internalType": "string",
          "name": "Description",
          "type": "string"
        },
        {
          "indexed": false,
          "internalType": "address",
          "name": "curator",
          "type": "address"
        }
      ],
      "name": "ProjectStarted",
      "type": "event"
    },
    {
      "anonymous": false,
      "inputs": [
        {
          "indexed": false,
          "internalType": "address",
          "name": "account",
          "type": "address"
        }
      ],
      "name": "Unpaused",
      "type": "event"
    },
    {
      "inputs": [
        {
          "internalType": "uint256",
          "name": "",
          "type": "uint256"
        }
      ],
      "name": "launchedExhibitions",
      "outputs": [
        {
          "internalType": "address",
          "name": "",
          "type": "address"
        }
      ],
      "stateMutability": "view",
      "type": "function"
    },
    {
      "inputs": [],
      "name": "owner",
      "outputs": [
        {
          "internalType": "address",
          "name": "",
          "type": "address"
        }
      ],
      "stateMutability": "view",
      "type": "function"
    },
    {
      "inputs": [],
      "name": "paused",
      "outputs": [
        {
          "internalType": "bool",
          "name": "",
          "type": "bool"
        }
      ],
      "stateMutability": "view",
      "type": "function"
    },
    {
      "inputs": [],
      "name": "renounceOwnership",
      "outputs": [],
      "stateMutability": "nonpayable",
      "type": "function"
    },
    {
      "inputs": [
        {
          "internalType": "address",
          "name": "newOwner",
          "type": "address"
        }
      ],
      "name": "transferOwnership",
      "outputs": [],
      "stateMutability": "nonpayable",
      "type": "function"
    },
    {
      "inputs": [],
      "name": "pause",
      "outputs": [],
      "stateMutability": "nonpayable",
      "type": "function"
    },
    {
      "inputs": [],
      "name": "unpause",
      "outputs": [],
      "stateMutability": "nonpayable",
      "type": "function"
    },
    {
      "inputs": [
        {
          "internalType": "uint256",
          "name": "minimum",
          "type": "uint256"
        },
        {
          "internalType": "string",
          "name": "title",
          "type": "string"
        },
        {
          "internalType": "string",
          "name": "description",
          "type": "string"
        },
        {
          "internalType": "uint256",
          "name": "suggestedgoal",
          "type": "uint256"
        },
        {
          "internalType": "string",
          "name": "curatorname",
          "type": "string"
        },
        {
          "internalType": "string",
          "name": "artkeyword",
          "type": "string"
        }
      ],
      "name": "launchExhibition",
      "outputs": [],
      "stateMutability": "nonpayable",
      "type": "function"
    },
    {
      "inputs": [],
      "name": "getLaunchedExhibitions",
      "outputs": [
        {
          "internalType": "address[]",
          "name": "",
          "type": "address[]"
        }
      ],
      "stateMutability": "view",
      "type": "function"
    }
  ],
  "bytecode": "0x608060405234801561001057600080fd5b5061002d61002261004c60201b60201c565b61005460201b60201c565b60008060146101000a81548160ff021916908315150217905550610118565b600033905090565b60008060009054906101000a900473ffffffffffffffffffffffffffffffffffffffff169050816000806101000a81548173ffffffffffffffffffffffffffffffffffffffff021916908373ffffffffffffffffffffffffffffffffffffffff1602179055508173ffffffffffffffffffffffffffffffffffffffff168173ffffffffffffffffffffffffffffffffffffffff167f8be0079c531659141344cd1fd0a4f28419497f9722a3daafe3b4186f6b6457e060405160405180910390a35050565b612d58806101276000396000f3fe60806040523480156200001157600080fd5b5060043610620000a05760003560e01c8063715018a6116200006f578063715018a6146200012b5780638456cb5914620001375780638da5cb5b1462000143578063ebfeb5d41462000165578063f2fde38b146200018557620000a0565b8063065cd3e414620000a557806334cc9e3814620000db5780633f4ba83a14620000fd5780635c975abb1462000109575b600080fd5b620000c36004803603810190620000bd919062000aea565b620001a5565b604051620000d2919062000e97565b60405180910390f35b620000e5620001e5565b604051620000f4919062000eb4565b60405180910390f35b6200010762000275565b005b6200011362000304565b60405162000122919062000ed8565b60405180910390f35b620001356200031a565b005b62000141620003ab565b005b6200014d6200043a565b6040516200015c919062000e97565b60405180910390f35b6200018360048036038101906200017d919062000b16565b62000463565b005b620001a360048036038101906200019d919062000abe565b6200063a565b005b60018181548110620001b657600080fd5b906000526020600020016000915054906101000a900473ffffffffffffffffffffffffffffffffffffffff1681565b606060018054806020026020016040519081016040528092919081815260200182805480156200026b57602002820191906000526020600020905b8160009054906101000a900473ffffffffffffffffffffffffffffffffffffffff1673ffffffffffffffffffffffffffffffffffffffff168152602001906001019080831162000220575b5050505050905090565b6200027f6200073e565b73ffffffffffffffffffffffffffffffffffffffff166200029f6200043a565b73ffffffffffffffffffffffffffffffffffffffff1614620002f8576040517f08c379a0000000000000000000000000000000000000000000000000000000008152600401620002ef9062000f5b565b60405180910390fd5b6200030262000746565b565b60008060149054906101000a900460ff16905090565b620003246200073e565b73ffffffffffffffffffffffffffffffffffffffff16620003446200043a565b73ffffffffffffffffffffffffffffffffffffffff16146200039d576040517f08c379a0000000000000000000000000000000000000000000000000000000008152600401620003949062000f5b565b60405180910390fd5b620003a96000620007f0565b565b620003b56200073e565b73ffffffffffffffffffffffffffffffffffffffff16620003d56200043a565b73ffffffffffffffffffffffffffffffffffffffff16146200042e576040517f08c379a0000000000000000000000000000000000000000000000000000000008152600401620004259062000f5b565b60405180910390fd5b62000438620008b4565b565b60008060009054906101000a900473ffffffffffffffffffffffffffffffffffffffff16905090565b6200046d62000304565b15620004b0576040517f08c379a0000000000000000000000000000000000000000000000000000000008152600401620004a79062000f39565b60405180910390fd5b8460029080519060200190620004c892919062000960565b508360039080519060200190620004e192919062000960565b508260048190555081600590805190602001906200050192919062000960565b5080600690805190602001906200051a92919062000960565b506000868686868686336040516200053290620009f1565b62000544979695949392919062000f7d565b604051809103906000f08015801562000561573d6000803e3d6000fd5b5090506001819080600181540180825580915050600190039060005260206000200160009091909190916101000a81548173ffffffffffffffffffffffffffffffffffffffff021916908373ffffffffffffffffffffffffffffffffffffffff16021790555084604051620005d7919062000e7e565b604051809103902086604051620005ef919062000e7e565b6040518091039020887fc8a67dbecc87a34eb8e975c10db95b27993bc021535ea506f9278598af96732e3360405162000629919062000e97565b60405180910390a450505050505050565b620006446200073e565b73ffffffffffffffffffffffffffffffffffffffff16620006646200043a565b73ffffffffffffffffffffffffffffffffffffffff1614620006bd576040517f08c379a0000000000000000000000000000000000000000000000000000000008152600401620006b49062000f5b565b60405180910390fd5b600073ffffffffffffffffffffffffffffffffffffffff168173ffffffffffffffffffffffffffffffffffffffff16141562000730576040517f08c379a0000000000000000000000000000000000000000000000000000000008152600401620007279062000f17565b60405180910390fd5b6200073b81620007f0565b50565b600033905090565b6200075062000304565b62000792576040517f08c379a0000000000000000000000000000000000000000000000000000000008152600401620007899062000ef5565b60405180910390fd5b60008060146101000a81548160ff0219169083151502179055507f5db9ee0a495bf2e6ff9c91a7834c1ba4fdd244a5e8aa4e537bd38aeae4b073aa620007d76200073e565b604051620007e6919062000e97565b60405180910390a1565b60008060009054906101000a900473ffffffffffffffffffffffffffffffffffffffff169050816000806101000a81548173ffffffffffffffffffffffffffffffffffffffff021916908373ffffffffffffffffffffffffffffffffffffffff1602179055508173ffffffffffffffffffffffffffffffffffffffff168173ffffffffffffffffffffffffffffffffffffffff167f8be0079c531659141344cd1fd0a4f28419497f9722a3daafe3b4186f6b6457e060405160405180910390a35050565b620008be62000304565b1562000901576040517f08c379a0000000000000000000000000000000000000000000000000000000008152600401620008f89062000f39565b60405180910390fd5b6001600060146101000a81548160ff0219169083151502179055507f62e78cea01bee320cd4e420270b5ea74000d11b0c9f74754ebdbfc544b05a258620009476200073e565b60405162000956919062000e97565b60405180910390a1565b8280546200096e906200116c565b90600052602060002090601f016020900481019282620009925760008555620009de565b82601f10620009ad57805160ff1916838001178555620009de565b82800160010185558215620009de579182015b82811115620009dd578251825591602001919060010190620009c0565b5b509050620009ed9190620009ff565b5090565b611add806200124683390190565b5b8082111562000a1a57600081600090555060010162000a00565b5090565b600062000a3562000a2f846200104a565b62001016565b90508281526020810184848401111562000a4e57600080fd5b62000a5b84828562001127565b509392505050565b60008135905062000a748162001211565b92915050565b600082601f83011262000a8c57600080fd5b813562000a9e84826020860162000a1e565b91505092915050565b60008135905062000ab8816200122b565b92915050565b60006020828403121562000ad157600080fd5b600062000ae18482850162000a63565b91505092915050565b60006020828403121562000afd57600080fd5b600062000b0d8482850162000aa7565b91505092915050565b60008060008060008060c0878903121562000b3057600080fd5b600062000b4089828a0162000aa7565b965050602087013567ffffffffffffffff81111562000b5e57600080fd5b62000b6c89828a0162000a7a565b955050604087013567ffffffffffffffff81111562000b8a57600080fd5b62000b9889828a0162000a7a565b945050606062000bab89828a0162000aa7565b935050608087013567ffffffffffffffff81111562000bc957600080fd5b62000bd789828a0162000a7a565b92505060a087013567ffffffffffffffff81111562000bf557600080fd5b62000c0389828a0162000a7a565b9150509295509295509295565b600062000c1e838362000c2a565b60208301905092915050565b62000c3581620010dd565b82525050565b62000c4681620010dd565b82525050565b600062000c59826200108d565b62000c658185620010b0565b935062000c72836200107d565b8060005b8381101562000ca957815162000c8d888262000c10565b975062000c9a83620010a3565b92505060018101905062000c76565b5085935050505092915050565b62000cc181620010f1565b82525050565b600062000cd48262001098565b62000ce08185620010c1565b935062000cf281856020860162001136565b62000cfd8162001200565b840191505092915050565b600062000d158262001098565b62000d218185620010d2565b935062000d3381856020860162001136565b80840191505092915050565b600062000d4e601483620010c1565b91507f5061757361626c653a206e6f74207061757365640000000000000000000000006000830152602082019050919050565b600062000d90602683620010c1565b91507f4f776e61626c653a206e6577206f776e657220697320746865207a65726f206160008301527f64647265737300000000000000000000000000000000000000000000000000006020830152604082019050919050565b600062000df8601083620010c1565b91507f5061757361626c653a20706175736564000000000000000000000000000000006000830152602082019050919050565b600062000e3a602083620010c1565b91507f4f776e61626c653a2063616c6c6572206973206e6f7420746865206f776e65726000830152602082019050919050565b62000e78816200111d565b82525050565b600062000e8c828462000d08565b915081905092915050565b600060208201905062000eae600083018462000c3b565b92915050565b6000602082019050818103600083015262000ed0818462000c4c565b905092915050565b600060208201905062000eef600083018462000cb6565b92915050565b6000602082019050818103600083015262000f108162000d3f565b9050919050565b6000602082019050818103600083015262000f328162000d81565b9050919050565b6000602082019050818103600083015262000f548162000de9565b9050919050565b6000602082019050818103600083015262000f768162000e2b565b9050919050565b600060e08201905062000f94600083018a62000e6d565b818103602083015262000fa8818962000cc7565b9050818103604083015262000fbe818862000cc7565b905062000fcf606083018762000e6d565b818103608083015262000fe3818662000cc7565b905081810360a083015262000ff9818562000cc7565b90506200100a60c083018462000c3b565b98975050505050505050565b6000604051905081810181811067ffffffffffffffff8211171562001040576200103f620011d1565b5b8060405250919050565b600067ffffffffffffffff821115620010685762001067620011d1565b5b601f19601f8301169050602081019050919050565b6000819050602082019050919050565b600081519050919050565b600081519050919050565b6000602082019050919050565b600082825260208201905092915050565b600082825260208201905092915050565b600081905092915050565b6000620010ea82620010fd565b9050919050565b60008115159050919050565b600073ffffffffffffffffffffffffffffffffffffffff82169050919050565b6000819050919050565b82818337600083830152505050565b60005b838110156200115657808201518184015260208101905062001139565b8381111562001166576000848401525b50505050565b600060028204905060018216806200118557607f821691505b602082108114156200119c576200119b620011a2565b5b50919050565b7f4e487b7100000000000000000000000000000000000000000000000000000000600052602260045260246000fd5b7f4e487b7100000000000000000000000000000000000000000000000000000000600052604160045260246000fd5b6000601f19601f8301169050919050565b6200121c81620010dd565b81146200122857600080fd5b50565b62001236816200111d565b81146200124257600080fd5b5056fe60806040523480156200001157600080fd5b5060405162001add38038062001add833981810160405281019062000037919062000246565b806000806101000a81548173ffffffffffffffffffffffffffffffffffffffff021916908373ffffffffffffffffffffffffffffffffffffffff16021790555086600181905550856004908051906020019062000096929190620000f6565b508460039080519060200190620000af929190620000f6565b50836005819055508260069080519060200190620000cf929190620000f6565b508160079080519060200190620000e8929190620000f6565b5050505050505050620004fa565b828054620001049062000432565b90600052602060002090601f01602090048101928262000128576000855562000174565b82601f106200014357805160ff191683800117855562000174565b8280016001018555821562000174579182015b828111156200017357825182559160200191906001019062000156565b5b50905062000183919062000187565b5090565b5b80821115620001a257600081600090555060010162000188565b5090565b6000620001bd620001b7846200038b565b62000357565b905082815260208101848484011115620001d657600080fd5b620001e3848285620003fc565b509392505050565b600081519050620001fc81620004c6565b92915050565b600082601f8301126200021457600080fd5b815162000226848260208601620001a6565b91505092915050565b6000815190506200024081620004e0565b92915050565b600080600080600080600060e0888a0312156200026257600080fd5b6000620002728a828b016200022f565b975050602088015167ffffffffffffffff8111156200029057600080fd5b6200029e8a828b0162000202565b965050604088015167ffffffffffffffff811115620002bc57600080fd5b620002ca8a828b0162000202565b9550506060620002dd8a828b016200022f565b945050608088015167ffffffffffffffff811115620002fb57600080fd5b620003098a828b0162000202565b93505060a088015167ffffffffffffffff8111156200032757600080fd5b620003358a828b0162000202565b92505060c0620003488a828b01620001eb565b91505092959891949750929550565b6000604051905081810181811067ffffffffffffffff8211171562000381576200038062000497565b5b8060405250919050565b600067ffffffffffffffff821115620003a957620003a862000497565b5b601f19601f8301169050602081019050919050565b6000620003cb82620003d2565b9050919050565b600073ffffffffffffffffffffffffffffffffffffffff82169050919050565b6000819050919050565b60005b838110156200041c578082015181840152602081019050620003ff565b838111156200042c576000848401525b50505050565b600060028204905060018216806200044b57607f821691505b6020821081141562000462576200046162000468565b5b50919050565b7f4e487b7100000000000000000000000000000000000000000000000000000000600052602260045260246000fd5b7f4e487b7100000000000000000000000000000000000000000000000000000000600052604160045260246000fd5b620004d181620003be565b8114620004dd57600080fd5b50565b620004eb81620003f2565b8114620004f757600080fd5b50565b6115d3806200050a6000396000f3fe6080604052600436106100a75760003560e01c80639878fba6116100645780639878fba61461019d57806398e527d3146101da578063b40652cb14610205578063bba981fa14610242578063d17550671461026d578063e66f53b714610296576100a7565b80630a9f46ad146100ac5780630c6d5a9f146100d7578063105868f01461010257806338670563146101435780634051ddac1461014d5780635652077c14610181575b600080fd5b3480156100b857600080fd5b506100c16102c1565b6040516100ce91906111e8565b60405180910390f35b3480156100e357600080fd5b506100ec6102c7565b6040516100f991906111e8565b60405180910390f35b34801561010e57600080fd5b5061012960048036038101906101249190610e85565b6102cd565b60405161013a9594939291906110ee565b60405180910390f35b61014b6103b8565b005b34801561015957600080fd5b506101626104c8565b6040516101789a99989796959493929190611203565b60405180910390f35b61019b60048036038101906101969190610e85565b61075e565b005b3480156101a957600080fd5b506101c460048036038101906101bf9190610df5565b610938565b6040516101d191906110d3565b60405180910390f35b3480156101e657600080fd5b506101ef610958565b6040516101fc91906111e8565b60405180910390f35b34801561021157600080fd5b5061022c60048036038101906102279190610e1e565b610962565b60405161023991906111e8565b60405180910390f35b34801561024e57600080fd5b50610257610b43565b60405161026491906111e8565b60405180910390f35b34801561027957600080fd5b50610294600480360381019061028f9190610e85565b610b49565b005b3480156102a257600080fd5b506102ab610c87565b6040516102b891906110b8565b60405180910390f35b60095481565b60025481565b600a6020528060005260406000206000915090508060000180546102f090611410565b80601f016020809104026020016040519081016040528092919081815260200182805461031c90611410565b80156103695780601f1061033e57610100808354040283529160200191610369565b820191906000526020600020905b81548152906001019060200180831161034c57829003601f168201915b5050505050908060010154908060020160009054906101000a900473ffffffffffffffffffffffffffffffffffffffff16908060020160149054906101000a900460ff16908060030154905085565b6001543410156103fd576040517f08c379a00000000000000000000000000000000000000000000000000000000081526004016103f490611188565b60405180910390fd5b60011515600860003373ffffffffffffffffffffffffffffffffffffffff1673ffffffffffffffffffffffffffffffffffffffff16815260200190815260200160002060009054906101000a900460ff161515146104c6576001600860003373ffffffffffffffffffffffffffffffffffffffff1673ffffffffffffffffffffffffffffffffffffffff16815260200190815260200160002060006101000a81548160ff021916908315150217905550600260008154809291906104c090611442565b91905055505b565b6000806060806000806000606080600060015447600460036009546002546005546006600760008054906101000a900473ffffffffffffffffffffffffffffffffffffffff1687805461051a90611410565b80601f016020809104026020016040519081016040528092919081815260200182805461054690611410565b80156105935780601f1061056857610100808354040283529160200191610593565b820191906000526020600020905b81548152906001019060200180831161057657829003601f168201915b505050505097508680546105a690611410565b80601f01602080910402602001604051908101604052809291908181526020018280546105d290611410565b801561061f5780601f106105f45761010080835404028352916020019161061f565b820191906000526020600020905b81548152906001019060200180831161060257829003601f168201915b5050505050965082805461063290611410565b80601f016020809104026020016040519081016040528092919081815260200182805461065e90611410565b80156106ab5780601f10610680576101008083540402835291602001916106ab565b820191906000526020600020905b81548152906001019060200180831161068e57829003601f168201915b505050505092508180546106be90611410565b80601f01602080910402602001604051908101604052809291908181526020018280546106ea90611410565b80156107375780601f1061070c57610100808354040283529160200191610737565b820191906000526020600020905b81548152906001019060200180831161071a57829003601f168201915b50505050509150995099509950995099509950995099509950995090919293949596979899565b60008054906101000a900473ffffffffffffffffffffffffffffffffffffffff1673ffffffffffffffffffffffffffffffffffffffff163373ffffffffffffffffffffffffffffffffffffffff16146107ec576040517f08c379a00000000000000000000000000000000000000000000000000000000081526004016107e3906111c8565b60405180910390fd5b6000600a60008381526020019081526020016000209050600280546108119190611343565b81600301541161082057600080fd5b8060020160149054906101000a900460ff161561083c57600080fd5b60008160020160009054906101000a900473ffffffffffffffffffffffffffffffffffffffff16905060008173ffffffffffffffffffffffffffffffffffffffff16836001015460405161088f906110a3565b60006040518083038185875af1925050503d80600081146108cc576040519150601f19603f3d011682016040523d82523d6000602084013e6108d1565b606091505b5050905080610915576040517f08c379a000000000000000000000000000000000000000000000000000000000815260040161090c90611168565b60405180910390fd5b60018360020160146101000a81548160ff02191690831515021790555050505050565b60086020528060005260406000206000915054906101000a900460ff1681565b6000600954905090565b60008060009054906101000a900473ffffffffffffffffffffffffffffffffffffffff1673ffffffffffffffffffffffffffffffffffffffff163373ffffffffffffffffffffffffffffffffffffffff16146109f3576040517f08c379a00000000000000000000000000000000000000000000000000000000081526004016109ea906111c8565b60405180910390fd5b600154471015610a38576040517f08c379a0000000000000000000000000000000000000000000000000000000008152600401610a2f906111a8565b60405180910390fd5b60096000815480929190610a4b90611442565b9190505590506000600a6000838152602001908152602001600020905084816000019080519060200190610a80929190610cab565b50838160010181905550828160020160006101000a81548173ffffffffffffffffffffffffffffffffffffffff021916908373ffffffffffffffffffffffffffffffffffffffff16021790555060008160020160146101000a81548160ff021916908315150217905550600081600301819055504781600101541115610b3b576040517f08c379a0000000000000000000000000000000000000000000000000000000008152600401610b3290611148565b60405180910390fd5b509392505050565b60015481565b6000600a60008381526020019081526020016000209050600860003373ffffffffffffffffffffffffffffffffffffffff1673ffffffffffffffffffffffffffffffffffffffff16815260200190815260200160002060009054906101000a900460ff16610bb657600080fd5b8060040160003373ffffffffffffffffffffffffffffffffffffffff1673ffffffffffffffffffffffffffffffffffffffff16815260200190815260200160002060009054906101000a900460ff1615610c0f57600080fd5b60018160040160003373ffffffffffffffffffffffffffffffffffffffff1673ffffffffffffffffffffffffffffffffffffffff16815260200190815260200160002060006101000a81548160ff021916908315150217905550806003016000815480929190610c7e90611442565b91905055505050565b60008054906101000a900473ffffffffffffffffffffffffffffffffffffffff1681565b828054610cb790611410565b90600052602060002090601f016020900481019282610cd95760008555610d20565b82601f10610cf257805160ff1916838001178555610d20565b82800160010185558215610d20579182015b82811115610d1f578251825591602001919060010190610d04565b5b509050610d2d9190610d31565b5090565b5b80821115610d4a576000816000905550600101610d32565b5090565b6000610d61610d5c846112ec565b6112bb565b905082815260208101848484011115610d7957600080fd5b610d848482856113ce565b509392505050565b600081359050610d9b81611558565b92915050565b600081359050610db08161156f565b92915050565b600082601f830112610dc757600080fd5b8135610dd7848260208601610d4e565b91505092915050565b600081359050610def81611586565b92915050565b600060208284031215610e0757600080fd5b6000610e1584828501610d8c565b91505092915050565b600080600060608486031215610e3357600080fd5b600084013567ffffffffffffffff811115610e4d57600080fd5b610e5986828701610db6565b9350506020610e6a86828701610de0565b9250506040610e7b86828701610da1565b9150509250925092565b600060208284031215610e9757600080fd5b6000610ea584828501610de0565b91505092915050565b610eb781611386565b82525050565b610ec681611374565b82525050565b610ed581611398565b82525050565b6000610ee68261131c565b610ef08185611332565b9350610f008185602086016113dd565b610f0981611547565b840191505092915050565b6000610f21602683611332565b91507f6d7573742068617665206d696e696d756d2066756e64696e6720666f7220707260008301527f6f706f73616c00000000000000000000000000000000000000000000000000006020830152604082019050919050565b6000610f87600f83611332565b91507f5472616e73666572206661696c656400000000000000000000000000000000006000830152602082019050919050565b6000610fc7601083611332565b91507f4e6f7420656e6f7567682066756e6473000000000000000000000000000000006000830152602082019050919050565b6000611007601b83611332565b91507f6d7573742062652066756e6465642077697468206d696e696d756d00000000006000830152602082019050919050565b6000611047601783611332565b91507f796f7520617265206e6f74207468652043757261746f720000000000000000006000830152602082019050919050565b6000611087600083611327565b9150600082019050919050565b61109d816113c4565b82525050565b60006110ae8261107a565b9150819050919050565b60006020820190506110cd6000830184610ebd565b92915050565b60006020820190506110e86000830184610ecc565b92915050565b600060a08201905081810360008301526111088188610edb565b90506111176020830187611094565b6111246040830186610eae565b6111316060830185610ecc565b61113e6080830184611094565b9695505050505050565b6000602082019050818103600083015261116181610f14565b9050919050565b6000602082019050818103600083015261118181610f7a565b9050919050565b600060208201905081810360008301526111a181610fba565b9050919050565b600060208201905081810360008301526111c181610ffa565b9050919050565b600060208201905081810360008301526111e18161103a565b9050919050565b60006020820190506111fd6000830184611094565b92915050565b600061014082019050611219600083018d611094565b611226602083018c611094565b8181036040830152611238818b610edb565b9050818103606083015261124c818a610edb565b905061125b6080830189611094565b61126860a0830188611094565b61127560c0830187611094565b81810360e08301526112878186610edb565b905081810361010083015261129c8185610edb565b90506112ac610120830184610ebd565b9b9a5050505050505050505050565b6000604051905081810181811067ffffffffffffffff821117156112e2576112e1611518565b5b8060405250919050565b600067ffffffffffffffff82111561130757611306611518565b5b601f19601f8301169050602081019050919050565b600081519050919050565b600081905092915050565b600082825260208201905092915050565b600061134e826113c4565b9150611359836113c4565b925082611369576113686114ba565b5b828204905092915050565b600061137f826113a4565b9050919050565b6000611391826113a4565b9050919050565b60008115159050919050565b600073ffffffffffffffffffffffffffffffffffffffff82169050919050565b6000819050919050565b82818337600083830152505050565b60005b838110156113fb5780820151818401526020810190506113e0565b8381111561140a576000848401525b50505050565b6000600282049050600182168061142857607f821691505b6020821081141561143c5761143b6114e9565b5b50919050565b600061144d826113c4565b91507fffffffffffffffffffffffffffffffffffffffffffffffffffffffffffffffff8214156114805761147f61148b565b5b600182019050919050565b7f4e487b7100000000000000000000000000000000000000000000000000000000600052601160045260246000fd5b7f4e487b7100000000000000000000000000000000000000000000000000000000600052601260045260246000fd5b7f4e487b7100000000000000000000000000000000000000000000000000000000600052602260045260246000fd5b7f4e487b7100000000000000000000000000000000000000000000000000000000600052604160045260246000fd5b6000601f19601f8301169050919050565b61156181611374565b811461156c57600080fd5b50565b61157881611386565b811461158357600080fd5b50565b61158f816113c4565b811461159a57600080fd5b5056fea2646970667358221220e641404d4cdc5169e0cca06affd2a84157abfe0d424f6eae183cdb91eda5c95564736f6c63430008000033a2646970667358221220142848d7f66fa6801b6532948e6d5cf23644a3e2caf4460cc74b004fb2d7a45364736f6c63430008000033",
  "immutableReferences": {},
  "source": "// SPDX-License-Identifier: MIT\npragma solidity 0.8.0;\n\n/// @title CurationStation: a platform for art curators\n/// @author Panasthetik\n\n/// @dev this is a factory contract; imports exhibitions template\n\nimport \"./Exhibition.sol\";\n\n/// @dev uses ownable and pausable for security\n\nimport \"@openzeppelin/contracts/security/Pausable.sol\";\nimport \"@openzeppelin/contracts/access/Ownable.sol\";\n\ncontract CurationStation is Ownable, Pausable {\n\n/// @notice index of launched exhibitions by address for home page\n/// @dev could add to and destructure array for future main page with more info\n\n\n    address[] public launchedExhibitions;\n\n/// @dev variables for exhibition template\n\n    string internal Title;\n    string internal Description;\n    uint internal SuggestedGoal;\n    string internal CuratorName;\n    string internal ArtKeyword;\n\n    \n/// @dev pausable functionality restricted to ownable\n\n    function pause() public onlyOwner {\n        _pause();\n    }\n    \n    function unpause() public onlyOwner {\n        _unpause();\n    }\n    \n\n/// @dev emits an event for project started; for newsfeed component on future implementation\n\n    event ProjectStarted(\n       uint indexed minimumPatronage,\n       string indexed Title,\n       string indexed Description,\n       address curator\n       \n    );\n\n/// @notice launches an exhibition and creates new contract\n/// @dev bulk of gas costs is for this contract creation on mainnet; port to Polygon or other L2 in future    \n\n\n    function launchExhibition(uint minimum, string memory title,\n        string memory description, uint suggestedgoal,\n        string memory curatorname, string memory artkeyword) public whenNotPaused {\n\n        Title = title;\n        Description = description;\n        SuggestedGoal = suggestedgoal;\n        CuratorName = curatorname;\n        ArtKeyword = artkeyword;\n        Exhibition newExhibition = new Exhibition(minimum, title, description,\n        suggestedgoal, curatorname, artkeyword, msg.sender);\n        launchedExhibitions.push(address(newExhibition));\n\n        \n        emit ProjectStarted(minimum, title, description, msg.sender);\n    }\n\n/// @dev getter function for main page exhibition indexing\n\n\n    function getLaunchedExhibitions() public view returns (address[] memory){\n        return launchedExhibitions;\n        \n    }\n    \n}\n",
  "sourcePath": "/Volumes/Glyph/curators-consensys-redo/curation-station/ethereum/contracts/CurationStation.sol",
  "compiler": {
    "name": "solc",
    "version": "0.8.0+commit.c7dfd78e.Emscripten.clang"
  },
  "schemaVersion": "3.4.3",
  "updatedAt": "2022-04-06T18:20:16.132Z",
  "devdoc": {
    "events": {
      "ProjectStarted(uint256,string,string,address)": {
        "details": "emits an event for project started; for newsfeed component on future implementation"
      }
    },
    "kind": "dev",
    "methods": {
      "getLaunchedExhibitions()": {
        "details": "getter function for main page exhibition indexing"
      },
      "launchExhibition(uint256,string,string,uint256,string,string)": {
        "details": "bulk of gas costs is for this contract creation on mainnet; port to Polygon or other L2 in future    "
      },
      "owner()": {
        "details": "Returns the address of the current owner."
      },
      "pause()": {
        "details": "pausable functionality restricted to ownable"
      },
      "paused()": {
        "details": "Returns true if the contract is paused, and false otherwise."
      },
      "renounceOwnership()": {
        "details": "Leaves the contract without owner. It will not be possible to call `onlyOwner` functions anymore. Can only be called by the current owner. NOTE: Renouncing ownership will leave the contract without an owner, thereby removing any functionality that is only available to the owner."
      },
      "transferOwnership(address)": {
        "details": "Transfers ownership of the contract to a new account (`newOwner`). Can only be called by the current owner."
      }
    },
    "stateVariables": {
      "Title": {
        "details": "variables for exhibition template"
      },
      "launchedExhibitions": {
        "details": "could add to and destructure array for future main page with more info"
      }
    },
    "version": 1
  },
  "userdoc": {
    "kind": "user",
    "methods": {
      "launchExhibition(uint256,string,string,uint256,string,string)": {
        "notice": "launches an exhibition and creates new contract"
      },
      "launchedExhibitions(uint256)": {
        "notice": "index of launched exhibitions by address for home page"
      }
    },
    "version": 1
  }
}