{
  "contractName": "Exhibition",
  "abi": [
    {
      "inputs": [
        {
          "internalType": "uint256",
          "name": "minimum",
          "type": "uint256"
        },
        {
          "internalType": "string",
          "name": "title",
          "type": "string"
        },
        {
          "internalType": "string",
          "name": "description",
          "type": "string"
        },
        {
          "internalType": "uint256",
          "name": "suggestedgoal",
          "type": "uint256"
        },
        {
          "internalType": "string",
          "name": "curatorname",
          "type": "string"
        },
        {
          "internalType": "string",
          "name": "artkeyword",
          "type": "string"
        },
        {
          "internalType": "address",
          "name": "creator",
          "type": "address"
        }
      ],
      "stateMutability": "nonpayable",
      "type": "constructor"
    },
    {
      "inputs": [],
      "name": "curator",
      "outputs": [
        {
          "internalType": "address",
          "name": "",
          "type": "address"
        }
      ],
      "stateMutability": "view",
      "type": "function"
    },
    {
      "inputs": [
        {
          "internalType": "uint256",
          "name": "",
          "type": "uint256"
        }
      ],
      "name": "expenseproposals",
      "outputs": [
        {
          "internalType": "string",
          "name": "description",
          "type": "string"
        },
        {
          "internalType": "uint256",
          "name": "value",
          "type": "uint256"
        },
        {
          "internalType": "address payable",
          "name": "recipient",
          "type": "address"
        },
        {
          "internalType": "bool",
          "name": "complete",
          "type": "bool"
        },
        {
          "internalType": "uint256",
          "name": "endorseCount",
          "type": "uint256"
        }
      ],
      "stateMutability": "view",
      "type": "function"
    },
    {
      "inputs": [],
      "name": "minimumPatronage",
      "outputs": [
        {
          "internalType": "uint256",
          "name": "",
          "type": "uint256"
        }
      ],
      "stateMutability": "view",
      "type": "function"
    },
    {
      "inputs": [
        {
          "internalType": "address",
          "name": "",
          "type": "address"
        }
      ],
      "name": "patronEndorsers",
      "outputs": [
        {
          "internalType": "bool",
          "name": "",
          "type": "bool"
        }
      ],
      "stateMutability": "view",
      "type": "function"
    },
    {
      "inputs": [],
      "name": "patronEndorsersCount",
      "outputs": [
        {
          "internalType": "uint256",
          "name": "",
          "type": "uint256"
        }
      ],
      "stateMutability": "view",
      "type": "function"
    },
    {
      "inputs": [],
      "name": "proposalsCount",
      "outputs": [
        {
          "internalType": "uint256",
          "name": "",
          "type": "uint256"
        }
      ],
      "stateMutability": "view",
      "type": "function"
    },
    {
      "inputs": [],
      "name": "makeContribution",
      "outputs": [],
      "stateMutability": "payable",
      "type": "function"
    },
    {
      "inputs": [
        {
          "internalType": "string",
          "name": "description",
          "type": "string"
        },
        {
          "internalType": "uint256",
          "name": "value",
          "type": "uint256"
        },
        {
          "internalType": "address payable",
          "name": "recipient",
          "type": "address"
        }
      ],
      "name": "createExpenseProposal",
      "outputs": [
        {
          "internalType": "uint256",
          "name": "proposalID",
          "type": "uint256"
        }
      ],
      "stateMutability": "nonpayable",
      "type": "function"
    },
    {
      "inputs": [
        {
          "internalType": "uint256",
          "name": "index",
          "type": "uint256"
        }
      ],
      "name": "endorseProposal",
      "outputs": [],
      "stateMutability": "nonpayable",
      "type": "function"
    },
    {
      "inputs": [
        {
          "internalType": "uint256",
          "name": "index",
          "type": "uint256"
        }
      ],
      "name": "finalizeProposal",
      "outputs": [],
      "stateMutability": "payable",
      "type": "function"
    },
    {
      "inputs": [],
      "name": "getSummary",
      "outputs": [
        {
          "internalType": "uint256",
          "name": "",
          "type": "uint256"
        },
        {
          "internalType": "uint256",
          "name": "",
          "type": "uint256"
        },
        {
          "internalType": "string",
          "name": "",
          "type": "string"
        },
        {
          "internalType": "string",
          "name": "",
          "type": "string"
        },
        {
          "internalType": "uint256",
          "name": "",
          "type": "uint256"
        },
        {
          "internalType": "uint256",
          "name": "",
          "type": "uint256"
        },
        {
          "internalType": "uint256",
          "name": "",
          "type": "uint256"
        },
        {
          "internalType": "string",
          "name": "",
          "type": "string"
        },
        {
          "internalType": "string",
          "name": "",
          "type": "string"
        },
        {
          "internalType": "address",
          "name": "",
          "type": "address"
        }
      ],
      "stateMutability": "view",
      "type": "function"
    },
    {
      "inputs": [],
      "name": "getProposalsCount",
      "outputs": [
        {
          "internalType": "uint256",
          "name": "",
          "type": "uint256"
        }
      ],
      "stateMutability": "view",
      "type": "function"
    }
  ],
  "bytecode": "0x60806040523480156200001157600080fd5b5060405162001add38038062001add833981810160405281019062000037919062000246565b806000806101000a81548173ffffffffffffffffffffffffffffffffffffffff021916908373ffffffffffffffffffffffffffffffffffffffff16021790555086600181905550856004908051906020019062000096929190620000f6565b508460039080519060200190620000af929190620000f6565b50836005819055508260069080519060200190620000cf929190620000f6565b508160079080519060200190620000e8929190620000f6565b5050505050505050620004fa565b828054620001049062000432565b90600052602060002090601f01602090048101928262000128576000855562000174565b82601f106200014357805160ff191683800117855562000174565b8280016001018555821562000174579182015b828111156200017357825182559160200191906001019062000156565b5b50905062000183919062000187565b5090565b5b80821115620001a257600081600090555060010162000188565b5090565b6000620001bd620001b7846200038b565b62000357565b905082815260208101848484011115620001d657600080fd5b620001e3848285620003fc565b509392505050565b600081519050620001fc81620004c6565b92915050565b600082601f8301126200021457600080fd5b815162000226848260208601620001a6565b91505092915050565b6000815190506200024081620004e0565b92915050565b600080600080600080600060e0888a0312156200026257600080fd5b6000620002728a828b016200022f565b975050602088015167ffffffffffffffff8111156200029057600080fd5b6200029e8a828b0162000202565b965050604088015167ffffffffffffffff811115620002bc57600080fd5b620002ca8a828b0162000202565b9550506060620002dd8a828b016200022f565b945050608088015167ffffffffffffffff811115620002fb57600080fd5b620003098a828b0162000202565b93505060a088015167ffffffffffffffff8111156200032757600080fd5b620003358a828b0162000202565b92505060c0620003488a828b01620001eb565b91505092959891949750929550565b6000604051905081810181811067ffffffffffffffff8211171562000381576200038062000497565b5b8060405250919050565b600067ffffffffffffffff821115620003a957620003a862000497565b5b601f19601f8301169050602081019050919050565b6000620003cb82620003d2565b9050919050565b600073ffffffffffffffffffffffffffffffffffffffff82169050919050565b6000819050919050565b60005b838110156200041c578082015181840152602081019050620003ff565b838111156200042c576000848401525b50505050565b600060028204905060018216806200044b57607f821691505b6020821081141562000462576200046162000468565b5b50919050565b7f4e487b7100000000000000000000000000000000000000000000000000000000600052602260045260246000fd5b7f4e487b7100000000000000000000000000000000000000000000000000000000600052604160045260246000fd5b620004d181620003be565b8114620004dd57600080fd5b50565b620004eb81620003f2565b8114620004f757600080fd5b50565b6115d3806200050a6000396000f3fe6080604052600436106100a75760003560e01c80639878fba6116100645780639878fba61461019d57806398e527d3146101da578063b40652cb14610205578063bba981fa14610242578063d17550671461026d578063e66f53b714610296576100a7565b80630a9f46ad146100ac5780630c6d5a9f146100d7578063105868f01461010257806338670563146101435780634051ddac1461014d5780635652077c14610181575b600080fd5b3480156100b857600080fd5b506100c16102c1565b6040516100ce91906111e8565b60405180910390f35b3480156100e357600080fd5b506100ec6102c7565b6040516100f991906111e8565b60405180910390f35b34801561010e57600080fd5b5061012960048036038101906101249190610e85565b6102cd565b60405161013a9594939291906110ee565b60405180910390f35b61014b6103b8565b005b34801561015957600080fd5b506101626104c8565b6040516101789a99989796959493929190611203565b60405180910390f35b61019b60048036038101906101969190610e85565b61075e565b005b3480156101a957600080fd5b506101c460048036038101906101bf9190610df5565b610938565b6040516101d191906110d3565b60405180910390f35b3480156101e657600080fd5b506101ef610958565b6040516101fc91906111e8565b60405180910390f35b34801561021157600080fd5b5061022c60048036038101906102279190610e1e565b610962565b60405161023991906111e8565b60405180910390f35b34801561024e57600080fd5b50610257610b43565b60405161026491906111e8565b60405180910390f35b34801561027957600080fd5b50610294600480360381019061028f9190610e85565b610b49565b005b3480156102a257600080fd5b506102ab610c87565b6040516102b891906110b8565b60405180910390f35b60095481565b60025481565b600a6020528060005260406000206000915090508060000180546102f090611410565b80601f016020809104026020016040519081016040528092919081815260200182805461031c90611410565b80156103695780601f1061033e57610100808354040283529160200191610369565b820191906000526020600020905b81548152906001019060200180831161034c57829003601f168201915b5050505050908060010154908060020160009054906101000a900473ffffffffffffffffffffffffffffffffffffffff16908060020160149054906101000a900460ff16908060030154905085565b6001543410156103fd576040517f08c379a00000000000000000000000000000000000000000000000000000000081526004016103f490611188565b60405180910390fd5b60011515600860003373ffffffffffffffffffffffffffffffffffffffff1673ffffffffffffffffffffffffffffffffffffffff16815260200190815260200160002060009054906101000a900460ff161515146104c6576001600860003373ffffffffffffffffffffffffffffffffffffffff1673ffffffffffffffffffffffffffffffffffffffff16815260200190815260200160002060006101000a81548160ff021916908315150217905550600260008154809291906104c090611442565b91905055505b565b6000806060806000806000606080600060015447600460036009546002546005546006600760008054906101000a900473ffffffffffffffffffffffffffffffffffffffff1687805461051a90611410565b80601f016020809104026020016040519081016040528092919081815260200182805461054690611410565b80156105935780601f1061056857610100808354040283529160200191610593565b820191906000526020600020905b81548152906001019060200180831161057657829003601f168201915b505050505097508680546105a690611410565b80601f01602080910402602001604051908101604052809291908181526020018280546105d290611410565b801561061f5780601f106105f45761010080835404028352916020019161061f565b820191906000526020600020905b81548152906001019060200180831161060257829003601f168201915b5050505050965082805461063290611410565b80601f016020809104026020016040519081016040528092919081815260200182805461065e90611410565b80156106ab5780601f10610680576101008083540402835291602001916106ab565b820191906000526020600020905b81548152906001019060200180831161068e57829003601f168201915b505050505092508180546106be90611410565b80601f01602080910402602001604051908101604052809291908181526020018280546106ea90611410565b80156107375780601f1061070c57610100808354040283529160200191610737565b820191906000526020600020905b81548152906001019060200180831161071a57829003601f168201915b50505050509150995099509950995099509950995099509950995090919293949596979899565b60008054906101000a900473ffffffffffffffffffffffffffffffffffffffff1673ffffffffffffffffffffffffffffffffffffffff163373ffffffffffffffffffffffffffffffffffffffff16146107ec576040517f08c379a00000000000000000000000000000000000000000000000000000000081526004016107e3906111c8565b60405180910390fd5b6000600a60008381526020019081526020016000209050600280546108119190611343565b81600301541161082057600080fd5b8060020160149054906101000a900460ff161561083c57600080fd5b60008160020160009054906101000a900473ffffffffffffffffffffffffffffffffffffffff16905060008173ffffffffffffffffffffffffffffffffffffffff16836001015460405161088f906110a3565b60006040518083038185875af1925050503d80600081146108cc576040519150601f19603f3d011682016040523d82523d6000602084013e6108d1565b606091505b5050905080610915576040517f08c379a000000000000000000000000000000000000000000000000000000000815260040161090c90611168565b60405180910390fd5b60018360020160146101000a81548160ff02191690831515021790555050505050565b60086020528060005260406000206000915054906101000a900460ff1681565b6000600954905090565b60008060009054906101000a900473ffffffffffffffffffffffffffffffffffffffff1673ffffffffffffffffffffffffffffffffffffffff163373ffffffffffffffffffffffffffffffffffffffff16146109f3576040517f08c379a00000000000000000000000000000000000000000000000000000000081526004016109ea906111c8565b60405180910390fd5b600154471015610a38576040517f08c379a0000000000000000000000000000000000000000000000000000000008152600401610a2f906111a8565b60405180910390fd5b60096000815480929190610a4b90611442565b9190505590506000600a6000838152602001908152602001600020905084816000019080519060200190610a80929190610cab565b50838160010181905550828160020160006101000a81548173ffffffffffffffffffffffffffffffffffffffff021916908373ffffffffffffffffffffffffffffffffffffffff16021790555060008160020160146101000a81548160ff021916908315150217905550600081600301819055504781600101541115610b3b576040517f08c379a0000000000000000000000000000000000000000000000000000000008152600401610b3290611148565b60405180910390fd5b509392505050565b60015481565b6000600a60008381526020019081526020016000209050600860003373ffffffffffffffffffffffffffffffffffffffff1673ffffffffffffffffffffffffffffffffffffffff16815260200190815260200160002060009054906101000a900460ff16610bb657600080fd5b8060040160003373ffffffffffffffffffffffffffffffffffffffff1673ffffffffffffffffffffffffffffffffffffffff16815260200190815260200160002060009054906101000a900460ff1615610c0f57600080fd5b60018160040160003373ffffffffffffffffffffffffffffffffffffffff1673ffffffffffffffffffffffffffffffffffffffff16815260200190815260200160002060006101000a81548160ff021916908315150217905550806003016000815480929190610c7e90611442565b91905055505050565b60008054906101000a900473ffffffffffffffffffffffffffffffffffffffff1681565b828054610cb790611410565b90600052602060002090601f016020900481019282610cd95760008555610d20565b82601f10610cf257805160ff1916838001178555610d20565b82800160010185558215610d20579182015b82811115610d1f578251825591602001919060010190610d04565b5b509050610d2d9190610d31565b5090565b5b80821115610d4a576000816000905550600101610d32565b5090565b6000610d61610d5c846112ec565b6112bb565b905082815260208101848484011115610d7957600080fd5b610d848482856113ce565b509392505050565b600081359050610d9b81611558565b92915050565b600081359050610db08161156f565b92915050565b600082601f830112610dc757600080fd5b8135610dd7848260208601610d4e565b91505092915050565b600081359050610def81611586565b92915050565b600060208284031215610e0757600080fd5b6000610e1584828501610d8c565b91505092915050565b600080600060608486031215610e3357600080fd5b600084013567ffffffffffffffff811115610e4d57600080fd5b610e5986828701610db6565b9350506020610e6a86828701610de0565b9250506040610e7b86828701610da1565b9150509250925092565b600060208284031215610e9757600080fd5b6000610ea584828501610de0565b91505092915050565b610eb781611386565b82525050565b610ec681611374565b82525050565b610ed581611398565b82525050565b6000610ee68261131c565b610ef08185611332565b9350610f008185602086016113dd565b610f0981611547565b840191505092915050565b6000610f21602683611332565b91507f6d7573742068617665206d696e696d756d2066756e64696e6720666f7220707260008301527f6f706f73616c00000000000000000000000000000000000000000000000000006020830152604082019050919050565b6000610f87600f83611332565b91507f5472616e73666572206661696c656400000000000000000000000000000000006000830152602082019050919050565b6000610fc7601083611332565b91507f4e6f7420656e6f7567682066756e6473000000000000000000000000000000006000830152602082019050919050565b6000611007601b83611332565b91507f6d7573742062652066756e6465642077697468206d696e696d756d00000000006000830152602082019050919050565b6000611047601783611332565b91507f796f7520617265206e6f74207468652043757261746f720000000000000000006000830152602082019050919050565b6000611087600083611327565b9150600082019050919050565b61109d816113c4565b82525050565b60006110ae8261107a565b9150819050919050565b60006020820190506110cd6000830184610ebd565b92915050565b60006020820190506110e86000830184610ecc565b92915050565b600060a08201905081810360008301526111088188610edb565b90506111176020830187611094565b6111246040830186610eae565b6111316060830185610ecc565b61113e6080830184611094565b9695505050505050565b6000602082019050818103600083015261116181610f14565b9050919050565b6000602082019050818103600083015261118181610f7a565b9050919050565b600060208201905081810360008301526111a181610fba565b9050919050565b600060208201905081810360008301526111c181610ffa565b9050919050565b600060208201905081810360008301526111e18161103a565b9050919050565b60006020820190506111fd6000830184611094565b92915050565b600061014082019050611219600083018d611094565b611226602083018c611094565b8181036040830152611238818b610edb565b9050818103606083015261124c818a610edb565b905061125b6080830189611094565b61126860a0830188611094565b61127560c0830187611094565b81810360e08301526112878186610edb565b905081810361010083015261129c8185610edb565b90506112ac610120830184610ebd565b9b9a5050505050505050505050565b6000604051905081810181811067ffffffffffffffff821117156112e2576112e1611518565b5b8060405250919050565b600067ffffffffffffffff82111561130757611306611518565b5b601f19601f8301169050602081019050919050565b600081519050919050565b600081905092915050565b600082825260208201905092915050565b600061134e826113c4565b9150611359836113c4565b925082611369576113686114ba565b5b828204905092915050565b600061137f826113a4565b9050919050565b6000611391826113a4565b9050919050565b60008115159050919050565b600073ffffffffffffffffffffffffffffffffffffffff82169050919050565b6000819050919050565b82818337600083830152505050565b60005b838110156113fb5780820151818401526020810190506113e0565b8381111561140a576000848401525b50505050565b6000600282049050600182168061142857607f821691505b6020821081141561143c5761143b6114e9565b5b50919050565b600061144d826113c4565b91507fffffffffffffffffffffffffffffffffffffffffffffffffffffffffffffffff8214156114805761147f61148b565b5b600182019050919050565b7f4e487b7100000000000000000000000000000000000000000000000000000000600052601160045260246000fd5b7f4e487b7100000000000000000000000000000000000000000000000000000000600052601260045260246000fd5b7f4e487b7100000000000000000000000000000000000000000000000000000000600052602260045260246000fd5b7f4e487b7100000000000000000000000000000000000000000000000000000000600052604160045260246000fd5b6000601f19601f8301169050919050565b61156181611374565b811461156c57600080fd5b50565b61157881611386565b811461158357600080fd5b50565b61158f816113c4565b811461159a57600080fd5b5056fea2646970667358221220e641404d4cdc5169e0cca06affd2a84157abfe0d424f6eae183cdb91eda5c95564736f6c63430008000033",
  "immutableReferences": {},
  "source": "// SPDX-License-Identifier: MIT\npragma solidity 0.8.0;\n\n/// @title Exhibition: template file for CurationStation\n/// @author Panasthetik\n\n/// @dev this is the exhibitions template\n\ncontract Exhibition {\n\n/// @notice this is the struct for expense proposals\n/// @dev this creates a proposal array for this exhibition\n\n    struct ExpenseProposal {\n        string description;\n        uint value;\n        address payable recipient;\n        bool complete;\n        uint endorseCount;\n        mapping(address => bool) endorsements;\n        \n    }\n\n/// @dev restate variables for constructor\n\n    address public curator;\n    uint public minimumPatronage;\n    uint public patronEndorsersCount;\n    \n    string internal Description;\n    string internal Title;\n\n    uint internal SuggestedGoal;\n    string internal CuratorName;\n    string internal ArtKeyword;\n    \n/// @dev map patrons to bool; is patronEndorser\n/// @dev map expense proposal struct to an array\n\n    mapping(address => bool) public patronEndorsers;\n    uint public proposalsCount;\n    mapping (uint => ExpenseProposal) public expenseproposals;\n\n/// @dev creates a modifier for curator only\n\n    modifier restricted() {\n        require(msg.sender == curator, \"you are not the Curator\");\n        _;\n    }\n\n/// @dev creates a modifier for expense proposals; must be funded with at least minimum.\n\n    modifier onlyFunded() {\n        require(address(this).balance >= minimumPatronage, \"must be funded with minimum\");\n        _;\n    }\n\n\n/// @notice creates the contract and sets parameters\n/// @dev parameters preloaded for exhibition summary; cannot be edited due to gas costs\n\n\n    constructor (uint minimum, string memory title, string memory description,\n    uint suggestedgoal, string memory curatorname, string memory artkeyword, address creator) {\n        curator = creator;\n        minimumPatronage = minimum;\n        Title = title;\n        Description = description;\n        SuggestedGoal = suggestedgoal;\n        CuratorName = curatorname;\n        ArtKeyword = artkeyword;\n    }\n\n\n/// @notice allows a patron to make a contribution\n/// @dev limits to minimum patronage\n\n\n    function makeContribution() public payable {\n        require(msg.value >= minimumPatronage, \"Not enough funds\");\n        if (patronEndorsers[msg.sender] != true){\n     \n        patronEndorsers[msg.sender] = true;\n        patronEndorsersCount++;        \n    }\n}\n\n/// @notice allows a curator to create an expense proposal\n/// @dev curators only modifier; follows expense proposal struct\n/// @dev requires an equivalent balance to create proposal\n\n\n    function createExpenseProposal(string memory description, uint value, address payable recipient)\n    public restricted onlyFunded returns (uint proposalID) {\n        proposalID = proposalsCount++;\n\n        ExpenseProposal storage newProposal = expenseproposals[proposalID];\n            newProposal.description = description;\n            newProposal.value = value;\n            newProposal.recipient = recipient;\n            newProposal.complete = false;\n            newProposal.endorseCount = 0;\n    \n    require(newProposal.value <= address(this).balance, \"must have minimum funding for proposal\");\n\n    }\n\n/// @notice allows a patron to endorse an expense proposal\n/// @dev adds to the endorseCount\n/// @dev patrons cannot endorse twice\n/// @dev verifies is patron\n\n\n\n    function endorseProposal(uint index) public {\n\n        ExpenseProposal storage proposal = expenseproposals[index];\n\n\n        require(patronEndorsers[msg.sender]);\n        require(!proposal.endorsements[msg.sender]);\n\n        proposal.endorsements[msg.sender] = true;\n        proposal.endorseCount++;\n    }\n\n/// @notice allows a curator to finalize an expense proposal\n/// @notice transfers funds to vendor address if 50% endorsement is reached by patrons\n/// @dev curators only modifier; patrons cannot finalize\n/// @dev checks effects interaction; precaution against state change after transfer\n\n   function finalizeProposal(uint index) public payable restricted {\n        ExpenseProposal storage proposal = expenseproposals[index];\n        \n        require(proposal.endorseCount > (patronEndorsersCount / 2 ));\n        require(!proposal.complete);\n        \n        address recipient = address(proposal.recipient);\n        proposal.value == 0;\n        (bool success, ) = recipient.call{value: proposal.value}(\"\");\n        require(success, \"Transfer failed\");\n        proposal.complete = true;\n        \n    }\n\n/// @notice queries the exhibition data and updates all dynamic info: budget remaining, proposals etc.\n/// @notice provides data for the exhibition summary page\n/// @dev obtains all data with one call; \n\n\n\n    function getSummary() public view returns (uint, uint, string memory, string memory,\n    uint, uint, uint, string memory, string memory, address) {\n        \n        return (\n            minimumPatronage,\n            address(this).balance,\n            Title,\n            Description,\n            proposalsCount,\n            patronEndorsersCount,\n            SuggestedGoal,\n            CuratorName,\n            ArtKeyword,\n            curator\n        );\n    }\n\n/// @dev creates index for the proposals table based on proposalID\n\n    function getProposalsCount() public view returns (uint) {\n        return proposalsCount;\n    }\n\n}",
  "sourcePath": "/Volumes/Glyph/curators-consensys-redo/curation-station/ethereum/contracts/Exhibition.sol",
  "compiler": {
    "name": "solc",
    "version": "0.8.0+commit.c7dfd78e.Emscripten.clang"
  },
  "schemaVersion": "3.4.3",
  "updatedAt": "2022-04-06T18:20:16.136Z",
  "devdoc": {
    "details": "this is the exhibitions template",
    "kind": "dev",
    "methods": {
      "constructor": {
        "details": "parameters preloaded for exhibition summary; cannot be edited due to gas costs"
      },
      "createExpenseProposal(string,uint256,address)": {
        "details": "curators only modifier; follows expense proposal structrequires an equivalent balance to create proposal"
      },
      "endorseProposal(uint256)": {
        "details": "adds to the endorseCountpatrons cannot endorse twiceverifies is patron"
      },
      "finalizeProposal(uint256)": {
        "details": "curators only modifier; patrons cannot finalizechecks effects interaction; precaution against state change after transfer"
      },
      "getProposalsCount()": {
        "details": "creates index for the proposals table based on proposalID"
      },
      "getSummary()": {
        "details": "obtains all data with one call; "
      },
      "makeContribution()": {
        "details": "limits to minimum patronage"
      }
    },
    "stateVariables": {
      "curator": {
        "details": "restate variables for constructor"
      },
      "patronEndorsers": {
        "details": "map patrons to bool; is patronEndorsermap expense proposal struct to an array"
      }
    },
    "version": 1
  },
  "userdoc": {
    "kind": "user",
    "methods": {
      "constructor": {
        "notice": "creates the contract and sets parameters"
      },
      "createExpenseProposal(string,uint256,address)": {
        "notice": "allows a curator to create an expense proposal"
      },
      "endorseProposal(uint256)": {
        "notice": "allows a patron to endorse an expense proposal"
      },
      "finalizeProposal(uint256)": {
        "notice": "allows a curator to finalize an expense proposaltransfers funds to vendor address if 50% endorsement is reached by patrons"
      },
      "getSummary()": {
        "notice": "queries the exhibition data and updates all dynamic info: budget remaining, proposals etc.provides data for the exhibition summary page"
      },
      "makeContribution()": {
        "notice": "allows a patron to make a contribution"
      }
    },
    "version": 1
  }
}